{
	"IpfsBluePrint.sol": {
		"IpfsBluePrint": {
			"abi": [
				{
					"inputs": [
						{
							"internalType": "string",
							"name": "fileHash",
							"type": "string"
						},
						{
							"internalType": "string",
							"name": "fileName",
							"type": "string"
						},
						{
							"internalType": "string",
							"name": "fileType",
							"type": "string"
						},
						{
							"internalType": "string",
							"name": "date",
							"type": "string"
						}
					],
					"name": "addFile",
					"outputs": [],
					"stateMutability": "nonpayable",
					"type": "function"
				}
			],
			"devdoc": {
				"kind": "dev",
				"methods": {},
				"version": 1
			},
			"evm": {
				"assembly": "    /* \"IpfsBluePrint.sol\":66:777  contract IpfsBluePrint {... */\n  mstore(0x40, 0x80)\n  callvalue\n  dup1\n  iszero\n  tag_1\n  jumpi\n  0x00\n  dup1\n  revert\ntag_1:\n  pop\n  dataSize(sub_0)\n  dup1\n  dataOffset(sub_0)\n  0x00\n  codecopy\n  0x00\n  return\nstop\n\nsub_0: assembly {\n        /* \"IpfsBluePrint.sol\":66:777  contract IpfsBluePrint {... */\n      mstore(0x40, 0x80)\n      callvalue\n      dup1\n      iszero\n      tag_1\n      jumpi\n      0x00\n      dup1\n      revert\n    tag_1:\n      pop\n      jumpi(tag_2, lt(calldatasize, 0x04))\n      shr(0xe0, calldataload(0x00))\n      dup1\n      0x5f067db0\n      eq\n      tag_3\n      jumpi\n    tag_2:\n      0x00\n      dup1\n      revert\n        /* \"IpfsBluePrint.sol\":403:775  function addFile(string memory fileHash, string memory fileName, string memory fileType, string memory date) public {... */\n    tag_3:\n      tag_4\n      0x04\n      dup1\n      calldatasize\n      sub\n      dup2\n      add\n      swap1\n      tag_5\n      swap2\n      swap1\n      tag_6\n      jump\t// in\n    tag_5:\n      tag_7\n      jump\t// in\n    tag_4:\n      stop\n    tag_7:\n        /* \"IpfsBluePrint.sol\":529:558  FileDetails memory fileDetail */\n      0x00\n        /* \"IpfsBluePrint.sol\":561:720  FileDetails({... */\n      mload(0x40)\n      dup1\n      0x80\n      add\n      0x40\n      mstore\n      dup1\n        /* \"IpfsBluePrint.sol\":597:605  fileHash */\n      dup7\n        /* \"IpfsBluePrint.sol\":561:720  FileDetails({... */\n      dup2\n      mstore\n      0x20\n      add\n        /* \"IpfsBluePrint.sol\":629:637  fileName */\n      dup6\n        /* \"IpfsBluePrint.sol\":561:720  FileDetails({... */\n      dup2\n      mstore\n      0x20\n      add\n        /* \"IpfsBluePrint.sol\":705:709  date */\n      dup4\n        /* \"IpfsBluePrint.sol\":561:720  FileDetails({... */\n      dup2\n      mstore\n      0x20\n      add\n        /* \"IpfsBluePrint.sol\":666:674  fileType */\n      dup5\n        /* \"IpfsBluePrint.sol\":561:720  FileDetails({... */\n      dup2\n      mstore\n      pop\n        /* \"IpfsBluePrint.sol\":529:720  FileDetails memory fileDetail = FileDetails({... */\n      swap1\n      pop\n        /* \"IpfsBluePrint.sol\":730:739  filesList */\n      0x00\n        /* \"IpfsBluePrint.sol\":730:751  filesList[msg.sender] */\n      dup1\n        /* \"IpfsBluePrint.sol\":740:750  msg.sender */\n      caller\n        /* \"IpfsBluePrint.sol\":730:751  filesList[msg.sender] */\n      0xffffffffffffffffffffffffffffffffffffffff\n      and\n      0xffffffffffffffffffffffffffffffffffffffff\n      and\n      dup2\n      mstore\n      0x20\n      add\n      swap1\n      dup2\n      mstore\n      0x20\n      add\n      0x00\n      keccak256\n        /* \"IpfsBluePrint.sol\":757:767  fileDetail */\n      dup2\n        /* \"IpfsBluePrint.sol\":730:768  filesList[msg.sender].push(fileDetail) */\n      swap1\n      dup1\n      0x01\n      dup2\n      sload\n      add\n      dup1\n      dup3\n      sstore\n      dup1\n      swap2\n      pop\n      pop\n      0x01\n      swap1\n      sub\n      swap1\n      0x00\n      mstore\n      keccak256(0x00, 0x20)\n      swap1\n      0x04\n      mul\n      add\n      0x00\n      swap1\n      swap2\n      swap1\n      swap2\n      swap1\n      swap2\n      pop\n      0x00\n      dup3\n      add\n      mload\n      dup2\n      0x00\n      add\n      swap1\n      dup2\n      tag_10\n      swap2\n      swap1\n      tag_11\n      jump\t// in\n    tag_10:\n      pop\n      0x20\n      dup3\n      add\n      mload\n      dup2\n      0x01\n      add\n      swap1\n      dup2\n      tag_12\n      swap2\n      swap1\n      tag_11\n      jump\t// in\n    tag_12:\n      pop\n      0x40\n      dup3\n      add\n      mload\n      dup2\n      0x02\n      add\n      swap1\n      dup2\n      tag_13\n      swap2\n      swap1\n      tag_11\n      jump\t// in\n    tag_13:\n      pop\n      0x60\n      dup3\n      add\n      mload\n      dup2\n      0x03\n      add\n      swap1\n      dup2\n      tag_14\n      swap2\n      swap1\n      tag_11\n      jump\t// in\n    tag_14:\n      pop\n      pop\n      pop\n        /* \"IpfsBluePrint.sol\":519:775  {... */\n      pop\n        /* \"IpfsBluePrint.sol\":403:775  function addFile(string memory fileHash, string memory fileName, string memory fileType, string memory date) public {... */\n      pop\n      pop\n      pop\n      pop\n      jump\t// out\n        /* \"#utility.yul\":7:82   */\n    tag_15:\n        /* \"#utility.yul\":40:46   */\n      0x00\n        /* \"#utility.yul\":73:75   */\n      0x40\n        /* \"#utility.yul\":67:76   */\n      mload\n        /* \"#utility.yul\":57:76   */\n      swap1\n      pop\n        /* \"#utility.yul\":7:82   */\n      swap1\n      jump\t// out\n        /* \"#utility.yul\":88:205   */\n    tag_16:\n        /* \"#utility.yul\":197:198   */\n      0x00\n        /* \"#utility.yul\":194:195   */\n      dup1\n        /* \"#utility.yul\":187:199   */\n      revert\n        /* \"#utility.yul\":211:328   */\n    tag_17:\n        /* \"#utility.yul\":320:321   */\n      0x00\n        /* \"#utility.yul\":317:318   */\n      dup1\n        /* \"#utility.yul\":310:322   */\n      revert\n        /* \"#utility.yul\":334:451   */\n    tag_18:\n        /* \"#utility.yul\":443:444   */\n      0x00\n        /* \"#utility.yul\":440:441   */\n      dup1\n        /* \"#utility.yul\":433:445   */\n      revert\n        /* \"#utility.yul\":457:574   */\n    tag_19:\n        /* \"#utility.yul\":566:567   */\n      0x00\n        /* \"#utility.yul\":563:564   */\n      dup1\n        /* \"#utility.yul\":556:568   */\n      revert\n        /* \"#utility.yul\":580:682   */\n    tag_20:\n        /* \"#utility.yul\":621:627   */\n      0x00\n        /* \"#utility.yul\":672:674   */\n      0x1f\n        /* \"#utility.yul\":668:675   */\n      not\n        /* \"#utility.yul\":663:665   */\n      0x1f\n        /* \"#utility.yul\":656:661   */\n      dup4\n        /* \"#utility.yul\":652:666   */\n      add\n        /* \"#utility.yul\":648:676   */\n      and\n        /* \"#utility.yul\":638:676   */\n      swap1\n      pop\n        /* \"#utility.yul\":580:682   */\n      swap2\n      swap1\n      pop\n      jump\t// out\n        /* \"#utility.yul\":688:868   */\n    tag_21:\n        /* \"#utility.yul\":736:813   */\n      0x4e487b7100000000000000000000000000000000000000000000000000000000\n        /* \"#utility.yul\":733:734   */\n      0x00\n        /* \"#utility.yul\":726:814   */\n      mstore\n        /* \"#utility.yul\":833:837   */\n      0x41\n        /* \"#utility.yul\":830:831   */\n      0x04\n        /* \"#utility.yul\":823:838   */\n      mstore\n        /* \"#utility.yul\":857:861   */\n      0x24\n        /* \"#utility.yul\":854:855   */\n      0x00\n        /* \"#utility.yul\":847:862   */\n      revert\n        /* \"#utility.yul\":874:1155   */\n    tag_22:\n        /* \"#utility.yul\":957:984   */\n      tag_56\n        /* \"#utility.yul\":979:983   */\n      dup3\n        /* \"#utility.yul\":957:984   */\n      tag_20\n      jump\t// in\n    tag_56:\n        /* \"#utility.yul\":949:955   */\n      dup2\n        /* \"#utility.yul\":945:985   */\n      add\n        /* \"#utility.yul\":1087:1093   */\n      dup2\n        /* \"#utility.yul\":1075:1085   */\n      dup2\n        /* \"#utility.yul\":1072:1094   */\n      lt\n        /* \"#utility.yul\":1051:1069   */\n      0xffffffffffffffff\n        /* \"#utility.yul\":1039:1049   */\n      dup3\n        /* \"#utility.yul\":1036:1070   */\n      gt\n        /* \"#utility.yul\":1033:1095   */\n      or\n        /* \"#utility.yul\":1030:1118   */\n      iszero\n      tag_57\n      jumpi\n        /* \"#utility.yul\":1098:1116   */\n      tag_58\n      tag_21\n      jump\t// in\n    tag_58:\n        /* \"#utility.yul\":1030:1118   */\n    tag_57:\n        /* \"#utility.yul\":1138:1148   */\n      dup1\n        /* \"#utility.yul\":1134:1136   */\n      0x40\n        /* \"#utility.yul\":1127:1149   */\n      mstore\n        /* \"#utility.yul\":917:1155   */\n      pop\n        /* \"#utility.yul\":874:1155   */\n      pop\n      pop\n      jump\t// out\n        /* \"#utility.yul\":1161:1290   */\n    tag_23:\n        /* \"#utility.yul\":1195:1201   */\n      0x00\n        /* \"#utility.yul\":1222:1242   */\n      tag_60\n      tag_15\n      jump\t// in\n    tag_60:\n        /* \"#utility.yul\":1212:1242   */\n      swap1\n      pop\n        /* \"#utility.yul\":1251:1284   */\n      tag_61\n        /* \"#utility.yul\":1279:1283   */\n      dup3\n        /* \"#utility.yul\":1271:1277   */\n      dup3\n        /* \"#utility.yul\":1251:1284   */\n      tag_22\n      jump\t// in\n    tag_61:\n        /* \"#utility.yul\":1161:1290   */\n      swap2\n      swap1\n      pop\n      jump\t// out\n        /* \"#utility.yul\":1296:1604   */\n    tag_24:\n        /* \"#utility.yul\":1358:1362   */\n      0x00\n        /* \"#utility.yul\":1448:1466   */\n      0xffffffffffffffff\n        /* \"#utility.yul\":1440:1446   */\n      dup3\n        /* \"#utility.yul\":1437:1467   */\n      gt\n        /* \"#utility.yul\":1434:1490   */\n      iszero\n      tag_63\n      jumpi\n        /* \"#utility.yul\":1470:1488   */\n      tag_64\n      tag_21\n      jump\t// in\n    tag_64:\n        /* \"#utility.yul\":1434:1490   */\n    tag_63:\n        /* \"#utility.yul\":1508:1537   */\n      tag_65\n        /* \"#utility.yul\":1530:1536   */\n      dup3\n        /* \"#utility.yul\":1508:1537   */\n      tag_20\n      jump\t// in\n    tag_65:\n        /* \"#utility.yul\":1500:1537   */\n      swap1\n      pop\n        /* \"#utility.yul\":1592:1596   */\n      0x20\n        /* \"#utility.yul\":1586:1590   */\n      dup2\n        /* \"#utility.yul\":1582:1597   */\n      add\n        /* \"#utility.yul\":1574:1597   */\n      swap1\n      pop\n        /* \"#utility.yul\":1296:1604   */\n      swap2\n      swap1\n      pop\n      jump\t// out\n        /* \"#utility.yul\":1610:1756   */\n    tag_25:\n        /* \"#utility.yul\":1707:1713   */\n      dup3\n        /* \"#utility.yul\":1702:1705   */\n      dup2\n        /* \"#utility.yul\":1697:1700   */\n      dup4\n        /* \"#utility.yul\":1684:1714   */\n      calldatacopy\n        /* \"#utility.yul\":1748:1749   */\n      0x00\n        /* \"#utility.yul\":1739:1745   */\n      dup4\n        /* \"#utility.yul\":1734:1737   */\n      dup4\n        /* \"#utility.yul\":1730:1746   */\n      add\n        /* \"#utility.yul\":1723:1750   */\n      mstore\n        /* \"#utility.yul\":1610:1756   */\n      pop\n      pop\n      pop\n      jump\t// out\n        /* \"#utility.yul\":1762:2187   */\n    tag_26:\n        /* \"#utility.yul\":1840:1845   */\n      0x00\n        /* \"#utility.yul\":1865:1931   */\n      tag_68\n        /* \"#utility.yul\":1881:1930   */\n      tag_69\n        /* \"#utility.yul\":1923:1929   */\n      dup5\n        /* \"#utility.yul\":1881:1930   */\n      tag_24\n      jump\t// in\n    tag_69:\n        /* \"#utility.yul\":1865:1931   */\n      tag_23\n      jump\t// in\n    tag_68:\n        /* \"#utility.yul\":1856:1931   */\n      swap1\n      pop\n        /* \"#utility.yul\":1954:1960   */\n      dup3\n        /* \"#utility.yul\":1947:1952   */\n      dup2\n        /* \"#utility.yul\":1940:1961   */\n      mstore\n        /* \"#utility.yul\":1992:1996   */\n      0x20\n        /* \"#utility.yul\":1985:1990   */\n      dup2\n        /* \"#utility.yul\":1981:1997   */\n      add\n        /* \"#utility.yul\":2030:2033   */\n      dup5\n        /* \"#utility.yul\":2021:2027   */\n      dup5\n        /* \"#utility.yul\":2016:2019   */\n      dup5\n        /* \"#utility.yul\":2012:2028   */\n      add\n        /* \"#utility.yul\":2009:2034   */\n      gt\n        /* \"#utility.yul\":2006:2118   */\n      iszero\n      tag_70\n      jumpi\n        /* \"#utility.yul\":2037:2116   */\n      tag_71\n      tag_19\n      jump\t// in\n    tag_71:\n        /* \"#utility.yul\":2006:2118   */\n    tag_70:\n        /* \"#utility.yul\":2127:2181   */\n      tag_72\n        /* \"#utility.yul\":2174:2180   */\n      dup5\n        /* \"#utility.yul\":2169:2172   */\n      dup3\n        /* \"#utility.yul\":2164:2167   */\n      dup6\n        /* \"#utility.yul\":2127:2181   */\n      tag_25\n      jump\t// in\n    tag_72:\n        /* \"#utility.yul\":1846:2187   */\n      pop\n        /* \"#utility.yul\":1762:2187   */\n      swap4\n      swap3\n      pop\n      pop\n      pop\n      jump\t// out\n        /* \"#utility.yul\":2207:2547   */\n    tag_27:\n        /* \"#utility.yul\":2263:2268   */\n      0x00\n        /* \"#utility.yul\":2312:2315   */\n      dup3\n        /* \"#utility.yul\":2305:2309   */\n      0x1f\n        /* \"#utility.yul\":2297:2303   */\n      dup4\n        /* \"#utility.yul\":2293:2310   */\n      add\n        /* \"#utility.yul\":2289:2316   */\n      slt\n        /* \"#utility.yul\":2279:2401   */\n      tag_74\n      jumpi\n        /* \"#utility.yul\":2320:2399   */\n      tag_75\n      tag_18\n      jump\t// in\n    tag_75:\n        /* \"#utility.yul\":2279:2401   */\n    tag_74:\n        /* \"#utility.yul\":2437:2443   */\n      dup2\n        /* \"#utility.yul\":2424:2444   */\n      calldataload\n        /* \"#utility.yul\":2462:2541   */\n      tag_76\n        /* \"#utility.yul\":2537:2540   */\n      dup5\n        /* \"#utility.yul\":2529:2535   */\n      dup3\n        /* \"#utility.yul\":2522:2526   */\n      0x20\n        /* \"#utility.yul\":2514:2520   */\n      dup7\n        /* \"#utility.yul\":2510:2527   */\n      add\n        /* \"#utility.yul\":2462:2541   */\n      tag_26\n      jump\t// in\n    tag_76:\n        /* \"#utility.yul\":2453:2541   */\n      swap2\n      pop\n        /* \"#utility.yul\":2269:2547   */\n      pop\n        /* \"#utility.yul\":2207:2547   */\n      swap3\n      swap2\n      pop\n      pop\n      jump\t// out\n        /* \"#utility.yul\":2553:4038   */\n    tag_6:\n        /* \"#utility.yul\":2679:2685   */\n      0x00\n        /* \"#utility.yul\":2687:2693   */\n      dup1\n        /* \"#utility.yul\":2695:2701   */\n      0x00\n        /* \"#utility.yul\":2703:2709   */\n      dup1\n        /* \"#utility.yul\":2752:2755   */\n      0x80\n        /* \"#utility.yul\":2740:2749   */\n      dup6\n        /* \"#utility.yul\":2731:2738   */\n      dup8\n        /* \"#utility.yul\":2727:2750   */\n      sub\n        /* \"#utility.yul\":2723:2756   */\n      slt\n        /* \"#utility.yul\":2720:2840   */\n      iszero\n      tag_78\n      jumpi\n        /* \"#utility.yul\":2759:2838   */\n      tag_79\n      tag_16\n      jump\t// in\n    tag_79:\n        /* \"#utility.yul\":2720:2840   */\n    tag_78:\n        /* \"#utility.yul\":2907:2908   */\n      0x00\n        /* \"#utility.yul\":2896:2905   */\n      dup6\n        /* \"#utility.yul\":2892:2909   */\n      add\n        /* \"#utility.yul\":2879:2910   */\n      calldataload\n        /* \"#utility.yul\":2937:2955   */\n      0xffffffffffffffff\n        /* \"#utility.yul\":2929:2935   */\n      dup2\n        /* \"#utility.yul\":2926:2956   */\n      gt\n        /* \"#utility.yul\":2923:3040   */\n      iszero\n      tag_80\n      jumpi\n        /* \"#utility.yul\":2959:3038   */\n      tag_81\n      tag_17\n      jump\t// in\n    tag_81:\n        /* \"#utility.yul\":2923:3040   */\n    tag_80:\n        /* \"#utility.yul\":3064:3127   */\n      tag_82\n        /* \"#utility.yul\":3119:3126   */\n      dup8\n        /* \"#utility.yul\":3110:3116   */\n      dup3\n        /* \"#utility.yul\":3099:3108   */\n      dup9\n        /* \"#utility.yul\":3095:3117   */\n      add\n        /* \"#utility.yul\":3064:3127   */\n      tag_27\n      jump\t// in\n    tag_82:\n        /* \"#utility.yul\":3054:3127   */\n      swap5\n      pop\n        /* \"#utility.yul\":2850:3137   */\n      pop\n        /* \"#utility.yul\":3204:3206   */\n      0x20\n        /* \"#utility.yul\":3193:3202   */\n      dup6\n        /* \"#utility.yul\":3189:3207   */\n      add\n        /* \"#utility.yul\":3176:3208   */\n      calldataload\n        /* \"#utility.yul\":3235:3253   */\n      0xffffffffffffffff\n        /* \"#utility.yul\":3227:3233   */\n      dup2\n        /* \"#utility.yul\":3224:3254   */\n      gt\n        /* \"#utility.yul\":3221:3338   */\n      iszero\n      tag_83\n      jumpi\n        /* \"#utility.yul\":3257:3336   */\n      tag_84\n      tag_17\n      jump\t// in\n    tag_84:\n        /* \"#utility.yul\":3221:3338   */\n    tag_83:\n        /* \"#utility.yul\":3362:3425   */\n      tag_85\n        /* \"#utility.yul\":3417:3424   */\n      dup8\n        /* \"#utility.yul\":3408:3414   */\n      dup3\n        /* \"#utility.yul\":3397:3406   */\n      dup9\n        /* \"#utility.yul\":3393:3415   */\n      add\n        /* \"#utility.yul\":3362:3425   */\n      tag_27\n      jump\t// in\n    tag_85:\n        /* \"#utility.yul\":3352:3425   */\n      swap4\n      pop\n        /* \"#utility.yul\":3147:3435   */\n      pop\n        /* \"#utility.yul\":3502:3504   */\n      0x40\n        /* \"#utility.yul\":3491:3500   */\n      dup6\n        /* \"#utility.yul\":3487:3505   */\n      add\n        /* \"#utility.yul\":3474:3506   */\n      calldataload\n        /* \"#utility.yul\":3533:3551   */\n      0xffffffffffffffff\n        /* \"#utility.yul\":3525:3531   */\n      dup2\n        /* \"#utility.yul\":3522:3552   */\n      gt\n        /* \"#utility.yul\":3519:3636   */\n      iszero\n      tag_86\n      jumpi\n        /* \"#utility.yul\":3555:3634   */\n      tag_87\n      tag_17\n      jump\t// in\n    tag_87:\n        /* \"#utility.yul\":3519:3636   */\n    tag_86:\n        /* \"#utility.yul\":3660:3723   */\n      tag_88\n        /* \"#utility.yul\":3715:3722   */\n      dup8\n        /* \"#utility.yul\":3706:3712   */\n      dup3\n        /* \"#utility.yul\":3695:3704   */\n      dup9\n        /* \"#utility.yul\":3691:3713   */\n      add\n        /* \"#utility.yul\":3660:3723   */\n      tag_27\n      jump\t// in\n    tag_88:\n        /* \"#utility.yul\":3650:3723   */\n      swap3\n      pop\n        /* \"#utility.yul\":3445:3733   */\n      pop\n        /* \"#utility.yul\":3800:3802   */\n      0x60\n        /* \"#utility.yul\":3789:3798   */\n      dup6\n        /* \"#utility.yul\":3785:3803   */\n      add\n        /* \"#utility.yul\":3772:3804   */\n      calldataload\n        /* \"#utility.yul\":3831:3849   */\n      0xffffffffffffffff\n        /* \"#utility.yul\":3823:3829   */\n      dup2\n        /* \"#utility.yul\":3820:3850   */\n      gt\n        /* \"#utility.yul\":3817:3934   */\n      iszero\n      tag_89\n      jumpi\n        /* \"#utility.yul\":3853:3932   */\n      tag_90\n      tag_17\n      jump\t// in\n    tag_90:\n        /* \"#utility.yul\":3817:3934   */\n    tag_89:\n        /* \"#utility.yul\":3958:4021   */\n      tag_91\n        /* \"#utility.yul\":4013:4020   */\n      dup8\n        /* \"#utility.yul\":4004:4010   */\n      dup3\n        /* \"#utility.yul\":3993:4002   */\n      dup9\n        /* \"#utility.yul\":3989:4011   */\n      add\n        /* \"#utility.yul\":3958:4021   */\n      tag_27\n      jump\t// in\n    tag_91:\n        /* \"#utility.yul\":3948:4021   */\n      swap2\n      pop\n        /* \"#utility.yul\":3743:4031   */\n      pop\n        /* \"#utility.yul\":2553:4038   */\n      swap3\n      swap6\n      swap2\n      swap5\n      pop\n      swap3\n      pop\n      jump\t// out\n        /* \"#utility.yul\":4044:4143   */\n    tag_28:\n        /* \"#utility.yul\":4096:4102   */\n      0x00\n        /* \"#utility.yul\":4130:4135   */\n      dup2\n        /* \"#utility.yul\":4124:4136   */\n      mload\n        /* \"#utility.yul\":4114:4136   */\n      swap1\n      pop\n        /* \"#utility.yul\":4044:4143   */\n      swap2\n      swap1\n      pop\n      jump\t// out\n        /* \"#utility.yul\":4149:4329   */\n    tag_29:\n        /* \"#utility.yul\":4197:4274   */\n      0x4e487b7100000000000000000000000000000000000000000000000000000000\n        /* \"#utility.yul\":4194:4195   */\n      0x00\n        /* \"#utility.yul\":4187:4275   */\n      mstore\n        /* \"#utility.yul\":4294:4298   */\n      0x22\n        /* \"#utility.yul\":4291:4292   */\n      0x04\n        /* \"#utility.yul\":4284:4299   */\n      mstore\n        /* \"#utility.yul\":4318:4322   */\n      0x24\n        /* \"#utility.yul\":4315:4316   */\n      0x00\n        /* \"#utility.yul\":4308:4323   */\n      revert\n        /* \"#utility.yul\":4335:4655   */\n    tag_30:\n        /* \"#utility.yul\":4379:4385   */\n      0x00\n        /* \"#utility.yul\":4416:4417   */\n      0x02\n        /* \"#utility.yul\":4410:4414   */\n      dup3\n        /* \"#utility.yul\":4406:4418   */\n      div\n        /* \"#utility.yul\":4396:4418   */\n      swap1\n      pop\n        /* \"#utility.yul\":4463:4464   */\n      0x01\n        /* \"#utility.yul\":4457:4461   */\n      dup3\n        /* \"#utility.yul\":4453:4465   */\n      and\n        /* \"#utility.yul\":4484:4502   */\n      dup1\n        /* \"#utility.yul\":4474:4555   */\n      tag_95\n      jumpi\n        /* \"#utility.yul\":4540:4544   */\n      0x7f\n        /* \"#utility.yul\":4532:4538   */\n      dup3\n        /* \"#utility.yul\":4528:4545   */\n      and\n        /* \"#utility.yul\":4518:4545   */\n      swap2\n      pop\n        /* \"#utility.yul\":4474:4555   */\n    tag_95:\n        /* \"#utility.yul\":4602:4604   */\n      0x20\n        /* \"#utility.yul\":4594:4600   */\n      dup3\n        /* \"#utility.yul\":4591:4605   */\n      lt\n        /* \"#utility.yul\":4571:4589   */\n      dup2\n        /* \"#utility.yul\":4568:4606   */\n      sub\n        /* \"#utility.yul\":4565:4649   */\n      tag_96\n      jumpi\n        /* \"#utility.yul\":4621:4639   */\n      tag_97\n      tag_29\n      jump\t// in\n    tag_97:\n        /* \"#utility.yul\":4565:4649   */\n    tag_96:\n        /* \"#utility.yul\":4386:4655   */\n      pop\n        /* \"#utility.yul\":4335:4655   */\n      swap2\n      swap1\n      pop\n      jump\t// out\n        /* \"#utility.yul\":4661:4802   */\n    tag_31:\n        /* \"#utility.yul\":4710:4714   */\n      0x00\n        /* \"#utility.yul\":4733:4736   */\n      dup2\n        /* \"#utility.yul\":4725:4736   */\n      swap1\n      pop\n        /* \"#utility.yul\":4756:4759   */\n      dup2\n        /* \"#utility.yul\":4753:4754   */\n      0x00\n        /* \"#utility.yul\":4746:4760   */\n      mstore\n        /* \"#utility.yul\":4790:4794   */\n      0x20\n        /* \"#utility.yul\":4787:4788   */\n      0x00\n        /* \"#utility.yul\":4777:4795   */\n      keccak256\n        /* \"#utility.yul\":4769:4795   */\n      swap1\n      pop\n        /* \"#utility.yul\":4661:4802   */\n      swap2\n      swap1\n      pop\n      jump\t// out\n        /* \"#utility.yul\":4808:4901   */\n    tag_32:\n        /* \"#utility.yul\":4845:4851   */\n      0x00\n        /* \"#utility.yul\":4892:4894   */\n      0x20\n        /* \"#utility.yul\":4887:4889   */\n      0x1f\n        /* \"#utility.yul\":4880:4885   */\n      dup4\n        /* \"#utility.yul\":4876:4890   */\n      add\n        /* \"#utility.yul\":4872:4895   */\n      div\n        /* \"#utility.yul\":4862:4895   */\n      swap1\n      pop\n        /* \"#utility.yul\":4808:4901   */\n      swap2\n      swap1\n      pop\n      jump\t// out\n        /* \"#utility.yul\":4907:5014   */\n    tag_33:\n        /* \"#utility.yul\":4951:4959   */\n      0x00\n        /* \"#utility.yul\":5001:5006   */\n      dup3\n        /* \"#utility.yul\":4995:4999   */\n      dup3\n        /* \"#utility.yul\":4991:5007   */\n      shl\n        /* \"#utility.yul\":4970:5007   */\n      swap1\n      pop\n        /* \"#utility.yul\":4907:5014   */\n      swap3\n      swap2\n      pop\n      pop\n      jump\t// out\n        /* \"#utility.yul\":5020:5413   */\n    tag_34:\n        /* \"#utility.yul\":5089:5095   */\n      0x00\n        /* \"#utility.yul\":5139:5140   */\n      0x08\n        /* \"#utility.yul\":5127:5137   */\n      dup4\n        /* \"#utility.yul\":5123:5141   */\n      mul\n        /* \"#utility.yul\":5162:5259   */\n      tag_102\n        /* \"#utility.yul\":5192:5258   */\n      0xffffffffffffffffffffffffffffffffffffffffffffffffffffffffffffffff\n        /* \"#utility.yul\":5181:5190   */\n      dup3\n        /* \"#utility.yul\":5162:5259   */\n      tag_33\n      jump\t// in\n    tag_102:\n        /* \"#utility.yul\":5280:5319   */\n      tag_103\n        /* \"#utility.yul\":5310:5318   */\n      dup7\n        /* \"#utility.yul\":5299:5308   */\n      dup4\n        /* \"#utility.yul\":5280:5319   */\n      tag_33\n      jump\t// in\n    tag_103:\n        /* \"#utility.yul\":5268:5319   */\n      swap6\n      pop\n        /* \"#utility.yul\":5352:5356   */\n      dup1\n        /* \"#utility.yul\":5348:5357   */\n      not\n        /* \"#utility.yul\":5341:5346   */\n      dup5\n        /* \"#utility.yul\":5337:5358   */\n      and\n        /* \"#utility.yul\":5328:5358   */\n      swap4\n      pop\n        /* \"#utility.yul\":5401:5405   */\n      dup1\n        /* \"#utility.yul\":5391:5399   */\n      dup7\n        /* \"#utility.yul\":5387:5406   */\n      and\n        /* \"#utility.yul\":5380:5385   */\n      dup5\n        /* \"#utility.yul\":5377:5407   */\n      or\n        /* \"#utility.yul\":5367:5407   */\n      swap3\n      pop\n        /* \"#utility.yul\":5096:5413   */\n      pop\n      pop\n        /* \"#utility.yul\":5020:5413   */\n      swap4\n      swap3\n      pop\n      pop\n      pop\n      jump\t// out\n        /* \"#utility.yul\":5419:5496   */\n    tag_35:\n        /* \"#utility.yul\":5456:5463   */\n      0x00\n        /* \"#utility.yul\":5485:5490   */\n      dup2\n        /* \"#utility.yul\":5474:5490   */\n      swap1\n      pop\n        /* \"#utility.yul\":5419:5496   */\n      swap2\n      swap1\n      pop\n      jump\t// out\n        /* \"#utility.yul\":5502:5562   */\n    tag_36:\n        /* \"#utility.yul\":5530:5533   */\n      0x00\n        /* \"#utility.yul\":5551:5556   */\n      dup2\n        /* \"#utility.yul\":5544:5556   */\n      swap1\n      pop\n        /* \"#utility.yul\":5502:5562   */\n      swap2\n      swap1\n      pop\n      jump\t// out\n        /* \"#utility.yul\":5568:5710   */\n    tag_37:\n        /* \"#utility.yul\":5618:5627   */\n      0x00\n        /* \"#utility.yul\":5651:5704   */\n      tag_107\n        /* \"#utility.yul\":5669:5703   */\n      tag_108\n        /* \"#utility.yul\":5678:5702   */\n      tag_109\n        /* \"#utility.yul\":5696:5701   */\n      dup5\n        /* \"#utility.yul\":5678:5702   */\n      tag_35\n      jump\t// in\n    tag_109:\n        /* \"#utility.yul\":5669:5703   */\n      tag_36\n      jump\t// in\n    tag_108:\n        /* \"#utility.yul\":5651:5704   */\n      tag_35\n      jump\t// in\n    tag_107:\n        /* \"#utility.yul\":5638:5704   */\n      swap1\n      pop\n        /* \"#utility.yul\":5568:5710   */\n      swap2\n      swap1\n      pop\n      jump\t// out\n        /* \"#utility.yul\":5716:5791   */\n    tag_38:\n        /* \"#utility.yul\":5759:5762   */\n      0x00\n        /* \"#utility.yul\":5780:5785   */\n      dup2\n        /* \"#utility.yul\":5773:5785   */\n      swap1\n      pop\n        /* \"#utility.yul\":5716:5791   */\n      swap2\n      swap1\n      pop\n      jump\t// out\n        /* \"#utility.yul\":5797:6066   */\n    tag_39:\n        /* \"#utility.yul\":5907:5946   */\n      tag_112\n        /* \"#utility.yul\":5938:5945   */\n      dup4\n        /* \"#utility.yul\":5907:5946   */\n      tag_37\n      jump\t// in\n    tag_112:\n        /* \"#utility.yul\":5968:6059   */\n      tag_113\n        /* \"#utility.yul\":6017:6058   */\n      tag_114\n        /* \"#utility.yul\":6041:6057   */\n      dup3\n        /* \"#utility.yul\":6017:6058   */\n      tag_38\n      jump\t// in\n    tag_114:\n        /* \"#utility.yul\":6009:6015   */\n      dup5\n        /* \"#utility.yul\":6002:6006   */\n      dup5\n        /* \"#utility.yul\":5996:6007   */\n      sload\n        /* \"#utility.yul\":5968:6059   */\n      tag_34\n      jump\t// in\n    tag_113:\n        /* \"#utility.yul\":5962:5966   */\n      dup3\n        /* \"#utility.yul\":5955:6060   */\n      sstore\n        /* \"#utility.yul\":5873:6066   */\n      pop\n        /* \"#utility.yul\":5797:6066   */\n      pop\n      pop\n      pop\n      jump\t// out\n        /* \"#utility.yul\":6072:6145   */\n    tag_40:\n        /* \"#utility.yul\":6117:6120   */\n      0x00\n        /* \"#utility.yul\":6072:6145   */\n      swap1\n      jump\t// out\n        /* \"#utility.yul\":6151:6340   */\n    tag_41:\n        /* \"#utility.yul\":6228:6260   */\n      tag_117\n      tag_40\n      jump\t// in\n    tag_117:\n        /* \"#utility.yul\":6269:6334   */\n      tag_118\n        /* \"#utility.yul\":6327:6333   */\n      dup2\n        /* \"#utility.yul\":6319:6325   */\n      dup5\n        /* \"#utility.yul\":6313:6317   */\n      dup5\n        /* \"#utility.yul\":6269:6334   */\n      tag_39\n      jump\t// in\n    tag_118:\n        /* \"#utility.yul\":6204:6340   */\n      pop\n        /* \"#utility.yul\":6151:6340   */\n      pop\n      pop\n      jump\t// out\n        /* \"#utility.yul\":6346:6532   */\n    tag_42:\n        /* \"#utility.yul\":6406:6526   */\n    tag_120:\n        /* \"#utility.yul\":6423:6426   */\n      dup2\n        /* \"#utility.yul\":6416:6421   */\n      dup2\n        /* \"#utility.yul\":6413:6427   */\n      lt\n        /* \"#utility.yul\":6406:6526   */\n      iszero\n      tag_122\n      jumpi\n        /* \"#utility.yul\":6477:6516   */\n      tag_123\n        /* \"#utility.yul\":6514:6515   */\n      0x00\n        /* \"#utility.yul\":6507:6512   */\n      dup3\n        /* \"#utility.yul\":6477:6516   */\n      tag_41\n      jump\t// in\n    tag_123:\n        /* \"#utility.yul\":6450:6451   */\n      0x01\n        /* \"#utility.yul\":6443:6448   */\n      dup2\n        /* \"#utility.yul\":6439:6452   */\n      add\n        /* \"#utility.yul\":6430:6452   */\n      swap1\n      pop\n        /* \"#utility.yul\":6406:6526   */\n      jump(tag_120)\n    tag_122:\n        /* \"#utility.yul\":6346:6532   */\n      pop\n      pop\n      jump\t// out\n        /* \"#utility.yul\":6538:7081   */\n    tag_43:\n        /* \"#utility.yul\":6639:6641   */\n      0x1f\n        /* \"#utility.yul\":6634:6637   */\n      dup3\n        /* \"#utility.yul\":6631:6642   */\n      gt\n        /* \"#utility.yul\":6628:7074   */\n      iszero\n      tag_125\n      jumpi\n        /* \"#utility.yul\":6673:6711   */\n      tag_126\n        /* \"#utility.yul\":6705:6710   */\n      dup2\n        /* \"#utility.yul\":6673:6711   */\n      tag_31\n      jump\t// in\n    tag_126:\n        /* \"#utility.yul\":6757:6786   */\n      tag_127\n        /* \"#utility.yul\":6775:6785   */\n      dup5\n        /* \"#utility.yul\":6757:6786   */\n      tag_32\n      jump\t// in\n    tag_127:\n        /* \"#utility.yul\":6747:6755   */\n      dup2\n        /* \"#utility.yul\":6743:6787   */\n      add\n        /* \"#utility.yul\":6940:6942   */\n      0x20\n        /* \"#utility.yul\":6928:6938   */\n      dup6\n        /* \"#utility.yul\":6925:6943   */\n      lt\n        /* \"#utility.yul\":6922:6971   */\n      iszero\n      tag_128\n      jumpi\n        /* \"#utility.yul\":6961:6969   */\n      dup2\n        /* \"#utility.yul\":6946:6969   */\n      swap1\n      pop\n        /* \"#utility.yul\":6922:6971   */\n    tag_128:\n        /* \"#utility.yul\":6984:7064   */\n      tag_129\n        /* \"#utility.yul\":7040:7062   */\n      tag_130\n        /* \"#utility.yul\":7058:7061   */\n      dup6\n        /* \"#utility.yul\":7040:7062   */\n      tag_32\n      jump\t// in\n    tag_130:\n        /* \"#utility.yul\":7030:7038   */\n      dup4\n        /* \"#utility.yul\":7026:7063   */\n      add\n        /* \"#utility.yul\":7013:7024   */\n      dup3\n        /* \"#utility.yul\":6984:7064   */\n      tag_42\n      jump\t// in\n    tag_129:\n        /* \"#utility.yul\":6643:7074   */\n      pop\n      pop\n        /* \"#utility.yul\":6628:7074   */\n    tag_125:\n        /* \"#utility.yul\":6538:7081   */\n      pop\n      pop\n      pop\n      jump\t// out\n        /* \"#utility.yul\":7087:7204   */\n    tag_44:\n        /* \"#utility.yul\":7141:7149   */\n      0x00\n        /* \"#utility.yul\":7191:7196   */\n      dup3\n        /* \"#utility.yul\":7185:7189   */\n      dup3\n        /* \"#utility.yul\":7181:7197   */\n      shr\n        /* \"#utility.yul\":7160:7197   */\n      swap1\n      pop\n        /* \"#utility.yul\":7087:7204   */\n      swap3\n      swap2\n      pop\n      pop\n      jump\t// out\n        /* \"#utility.yul\":7210:7379   */\n    tag_45:\n        /* \"#utility.yul\":7254:7260   */\n      0x00\n        /* \"#utility.yul\":7287:7338   */\n      tag_133\n        /* \"#utility.yul\":7335:7336   */\n      0x00\n        /* \"#utility.yul\":7331:7337   */\n      not\n        /* \"#utility.yul\":7323:7328   */\n      dup5\n        /* \"#utility.yul\":7320:7321   */\n      0x08\n        /* \"#utility.yul\":7316:7329   */\n      mul\n        /* \"#utility.yul\":7287:7338   */\n      tag_44\n      jump\t// in\n    tag_133:\n        /* \"#utility.yul\":7283:7339   */\n      not\n        /* \"#utility.yul\":7368:7372   */\n      dup1\n        /* \"#utility.yul\":7362:7366   */\n      dup4\n        /* \"#utility.yul\":7358:7373   */\n      and\n        /* \"#utility.yul\":7348:7373   */\n      swap2\n      pop\n        /* \"#utility.yul\":7261:7379   */\n      pop\n        /* \"#utility.yul\":7210:7379   */\n      swap3\n      swap2\n      pop\n      pop\n      jump\t// out\n        /* \"#utility.yul\":7384:7679   */\n    tag_46:\n        /* \"#utility.yul\":7460:7464   */\n      0x00\n        /* \"#utility.yul\":7606:7635   */\n      tag_135\n        /* \"#utility.yul\":7631:7634   */\n      dup4\n        /* \"#utility.yul\":7625:7629   */\n      dup4\n        /* \"#utility.yul\":7606:7635   */\n      tag_45\n      jump\t// in\n    tag_135:\n        /* \"#utility.yul\":7598:7635   */\n      swap2\n      pop\n        /* \"#utility.yul\":7668:7671   */\n      dup3\n        /* \"#utility.yul\":7665:7666   */\n      0x02\n        /* \"#utility.yul\":7661:7672   */\n      mul\n        /* \"#utility.yul\":7655:7659   */\n      dup3\n        /* \"#utility.yul\":7652:7673   */\n      or\n        /* \"#utility.yul\":7644:7673   */\n      swap1\n      pop\n        /* \"#utility.yul\":7384:7679   */\n      swap3\n      swap2\n      pop\n      pop\n      jump\t// out\n        /* \"#utility.yul\":7684:9079   */\n    tag_11:\n        /* \"#utility.yul\":7801:7838   */\n      tag_137\n        /* \"#utility.yul\":7834:7837   */\n      dup3\n        /* \"#utility.yul\":7801:7838   */\n      tag_28\n      jump\t// in\n    tag_137:\n        /* \"#utility.yul\":7903:7921   */\n      0xffffffffffffffff\n        /* \"#utility.yul\":7895:7901   */\n      dup2\n        /* \"#utility.yul\":7892:7922   */\n      gt\n        /* \"#utility.yul\":7889:7945   */\n      iszero\n      tag_138\n      jumpi\n        /* \"#utility.yul\":7925:7943   */\n      tag_139\n      tag_21\n      jump\t// in\n    tag_139:\n        /* \"#utility.yul\":7889:7945   */\n    tag_138:\n        /* \"#utility.yul\":7969:8007   */\n      tag_140\n        /* \"#utility.yul\":8001:8005   */\n      dup3\n        /* \"#utility.yul\":7995:8006   */\n      sload\n        /* \"#utility.yul\":7969:8007   */\n      tag_30\n      jump\t// in\n    tag_140:\n        /* \"#utility.yul\":8054:8121   */\n      tag_141\n        /* \"#utility.yul\":8114:8120   */\n      dup3\n        /* \"#utility.yul\":8106:8112   */\n      dup3\n        /* \"#utility.yul\":8100:8104   */\n      dup6\n        /* \"#utility.yul\":8054:8121   */\n      tag_43\n      jump\t// in\n    tag_141:\n        /* \"#utility.yul\":8148:8149   */\n      0x00\n        /* \"#utility.yul\":8172:8176   */\n      0x20\n        /* \"#utility.yul\":8159:8176   */\n      swap1\n      pop\n        /* \"#utility.yul\":8204:8206   */\n      0x1f\n        /* \"#utility.yul\":8196:8202   */\n      dup4\n        /* \"#utility.yul\":8193:8207   */\n      gt\n        /* \"#utility.yul\":8221:8222   */\n      0x01\n        /* \"#utility.yul\":8216:8834   */\n      dup2\n      eq\n      tag_143\n      jumpi\n        /* \"#utility.yul\":8878:8879   */\n      0x00\n        /* \"#utility.yul\":8895:8901   */\n      dup5\n        /* \"#utility.yul\":8892:8969   */\n      iszero\n      tag_144\n      jumpi\n        /* \"#utility.yul\":8944:8953   */\n      dup3\n        /* \"#utility.yul\":8939:8942   */\n      dup8\n        /* \"#utility.yul\":8935:8954   */\n      add\n        /* \"#utility.yul\":8929:8955   */\n      mload\n        /* \"#utility.yul\":8920:8955   */\n      swap1\n      pop\n        /* \"#utility.yul\":8892:8969   */\n    tag_144:\n        /* \"#utility.yul\":8995:9062   */\n      tag_145\n        /* \"#utility.yul\":9055:9061   */\n      dup6\n        /* \"#utility.yul\":9048:9053   */\n      dup3\n        /* \"#utility.yul\":8995:9062   */\n      tag_46\n      jump\t// in\n    tag_145:\n        /* \"#utility.yul\":8989:8993   */\n      dup7\n        /* \"#utility.yul\":8982:9063   */\n      sstore\n        /* \"#utility.yul\":8851:9073   */\n      pop\n        /* \"#utility.yul\":8186:9073   */\n      jump(tag_142)\n        /* \"#utility.yul\":8216:8834   */\n    tag_143:\n        /* \"#utility.yul\":8268:8272   */\n      0x1f\n        /* \"#utility.yul\":8264:8273   */\n      not\n        /* \"#utility.yul\":8256:8262   */\n      dup5\n        /* \"#utility.yul\":8252:8274   */\n      and\n        /* \"#utility.yul\":8302:8339   */\n      tag_146\n        /* \"#utility.yul\":8334:8338   */\n      dup7\n        /* \"#utility.yul\":8302:8339   */\n      tag_31\n      jump\t// in\n    tag_146:\n        /* \"#utility.yul\":8361:8362   */\n      0x00\n        /* \"#utility.yul\":8375:8583   */\n    tag_147:\n        /* \"#utility.yul\":8389:8396   */\n      dup3\n        /* \"#utility.yul\":8386:8387   */\n      dup2\n        /* \"#utility.yul\":8383:8397   */\n      lt\n        /* \"#utility.yul\":8375:8583   */\n      iszero\n      tag_149\n      jumpi\n        /* \"#utility.yul\":8468:8477   */\n      dup5\n        /* \"#utility.yul\":8463:8466   */\n      dup10\n        /* \"#utility.yul\":8459:8478   */\n      add\n        /* \"#utility.yul\":8453:8479   */\n      mload\n        /* \"#utility.yul\":8445:8451   */\n      dup3\n        /* \"#utility.yul\":8438:8480   */\n      sstore\n        /* \"#utility.yul\":8519:8520   */\n      0x01\n        /* \"#utility.yul\":8511:8517   */\n      dup3\n        /* \"#utility.yul\":8507:8521   */\n      add\n        /* \"#utility.yul\":8497:8521   */\n      swap2\n      pop\n        /* \"#utility.yul\":8566:8568   */\n      0x20\n        /* \"#utility.yul\":8555:8564   */\n      dup6\n        /* \"#utility.yul\":8551:8569   */\n      add\n        /* \"#utility.yul\":8538:8569   */\n      swap5\n      pop\n        /* \"#utility.yul\":8412:8416   */\n      0x20\n        /* \"#utility.yul\":8409:8410   */\n      dup2\n        /* \"#utility.yul\":8405:8417   */\n      add\n        /* \"#utility.yul\":8400:8417   */\n      swap1\n      pop\n        /* \"#utility.yul\":8375:8583   */\n      jump(tag_147)\n    tag_149:\n        /* \"#utility.yul\":8611:8617   */\n      dup7\n        /* \"#utility.yul\":8602:8609   */\n      dup4\n        /* \"#utility.yul\":8599:8618   */\n      lt\n        /* \"#utility.yul\":8596:8775   */\n      iszero\n      tag_150\n      jumpi\n        /* \"#utility.yul\":8669:8678   */\n      dup5\n        /* \"#utility.yul\":8664:8667   */\n      dup10\n        /* \"#utility.yul\":8660:8679   */\n      add\n        /* \"#utility.yul\":8654:8680   */\n      mload\n        /* \"#utility.yul\":8712:8760   */\n      tag_151\n        /* \"#utility.yul\":8754:8758   */\n      0x1f\n        /* \"#utility.yul\":8746:8752   */\n      dup10\n        /* \"#utility.yul\":8742:8759   */\n      and\n        /* \"#utility.yul\":8731:8740   */\n      dup3\n        /* \"#utility.yul\":8712:8760   */\n      tag_45\n      jump\t// in\n    tag_151:\n        /* \"#utility.yul\":8704:8710   */\n      dup4\n        /* \"#utility.yul\":8697:8761   */\n      sstore\n        /* \"#utility.yul\":8619:8775   */\n      pop\n        /* \"#utility.yul\":8596:8775   */\n    tag_150:\n        /* \"#utility.yul\":8821:8822   */\n      0x01\n        /* \"#utility.yul\":8817:8818   */\n      0x02\n        /* \"#utility.yul\":8809:8815   */\n      dup9\n        /* \"#utility.yul\":8805:8819   */\n      mul\n        /* \"#utility.yul\":8801:8823   */\n      add\n        /* \"#utility.yul\":8795:8799   */\n      dup9\n        /* \"#utility.yul\":8788:8824   */\n      sstore\n        /* \"#utility.yul\":8223:8834   */\n      pop\n      pop\n      pop\n        /* \"#utility.yul\":8186:9073   */\n    tag_142:\n      pop\n        /* \"#utility.yul\":7776:9079   */\n      pop\n      pop\n      pop\n        /* \"#utility.yul\":7684:9079   */\n      pop\n      pop\n      jump\t// out\n\n    auxdata: 0xa26469706673582212200b890f72725489bda3bd6952a6aa5e50e59bf9e46703cd3622d057979d2d112964736f6c63430008120033\n}\n",
				"bytecode": {
					"linkReferences": {},
					"object": "608060405234801561001057600080fd5b50610694806100206000396000f3fe608060405234801561001057600080fd5b506004361061002b5760003560e01c80635f067db014610030575b600080fd5b61004a60048036038101906100459190610294565b61004c565b005b600060405180608001604052808681526020018581526020018381526020018481525090506000803373ffffffffffffffffffffffffffffffffffffffff1673ffffffffffffffffffffffffffffffffffffffff16815260200190815260200160002081908060018154018082558091505060019003906000526020600020906004020160009091909190915060008201518160000190816100ee919061058c565b506020820151816001019081610104919061058c565b50604082015181600201908161011a919061058c565b506060820151816003019081610130919061058c565b5050505050505050565b6000604051905090565b600080fd5b600080fd5b600080fd5b600080fd5b6000601f19601f8301169050919050565b7f4e487b7100000000000000000000000000000000000000000000000000000000600052604160045260246000fd5b6101a182610158565b810181811067ffffffffffffffff821117156101c0576101bf610169565b5b80604052505050565b60006101d361013a565b90506101df8282610198565b919050565b600067ffffffffffffffff8211156101ff576101fe610169565b5b61020882610158565b9050602081019050919050565b82818337600083830152505050565b6000610237610232846101e4565b6101c9565b90508281526020810184848401111561025357610252610153565b5b61025e848285610215565b509392505050565b600082601f83011261027b5761027a61014e565b5b813561028b848260208601610224565b91505092915050565b600080600080608085870312156102ae576102ad610144565b5b600085013567ffffffffffffffff8111156102cc576102cb610149565b5b6102d887828801610266565b945050602085013567ffffffffffffffff8111156102f9576102f8610149565b5b61030587828801610266565b935050604085013567ffffffffffffffff81111561032657610325610149565b5b61033287828801610266565b925050606085013567ffffffffffffffff81111561035357610352610149565b5b61035f87828801610266565b91505092959194509250565b600081519050919050565b7f4e487b7100000000000000000000000000000000000000000000000000000000600052602260045260246000fd5b600060028204905060018216806103bd57607f821691505b6020821081036103d0576103cf610376565b5b50919050565b60008190508160005260206000209050919050565b60006020601f8301049050919050565b600082821b905092915050565b6000600883026104387fffffffffffffffffffffffffffffffffffffffffffffffffffffffffffffffff826103fb565b61044286836103fb565b95508019841693508086168417925050509392505050565b6000819050919050565b6000819050919050565b600061048961048461047f8461045a565b610464565b61045a565b9050919050565b6000819050919050565b6104a38361046e565b6104b76104af82610490565b848454610408565b825550505050565b600090565b6104cc6104bf565b6104d781848461049a565b505050565b5b818110156104fb576104f06000826104c4565b6001810190506104dd565b5050565b601f82111561054057610511816103d6565b61051a846103eb565b81016020851015610529578190505b61053d610535856103eb565b8301826104dc565b50505b505050565b600082821c905092915050565b600061056360001984600802610545565b1980831691505092915050565b600061057c8383610552565b9150826002028217905092915050565b6105958261036b565b67ffffffffffffffff8111156105ae576105ad610169565b5b6105b882546103a5565b6105c38282856104ff565b600060209050601f8311600181146105f657600084156105e4578287015190505b6105ee8582610570565b865550610656565b601f198416610604866103d6565b60005b8281101561062c57848901518255600182019150602085019450602081019050610607565b868310156106495784890151610645601f891682610552565b8355505b6001600288020188555050505b50505050505056fea26469706673582212200b890f72725489bda3bd6952a6aa5e50e59bf9e46703cd3622d057979d2d112964736f6c63430008120033",
					"opcodes": "PUSH1 0x80 PUSH1 0x40 MSTORE CALLVALUE DUP1 ISZERO PUSH2 0x10 JUMPI PUSH1 0x0 DUP1 REVERT JUMPDEST POP PUSH2 0x694 DUP1 PUSH2 0x20 PUSH1 0x0 CODECOPY PUSH1 0x0 RETURN INVALID PUSH1 0x80 PUSH1 0x40 MSTORE CALLVALUE DUP1 ISZERO PUSH2 0x10 JUMPI PUSH1 0x0 DUP1 REVERT JUMPDEST POP PUSH1 0x4 CALLDATASIZE LT PUSH2 0x2B JUMPI PUSH1 0x0 CALLDATALOAD PUSH1 0xE0 SHR DUP1 PUSH4 0x5F067DB0 EQ PUSH2 0x30 JUMPI JUMPDEST PUSH1 0x0 DUP1 REVERT JUMPDEST PUSH2 0x4A PUSH1 0x4 DUP1 CALLDATASIZE SUB DUP2 ADD SWAP1 PUSH2 0x45 SWAP2 SWAP1 PUSH2 0x294 JUMP JUMPDEST PUSH2 0x4C JUMP JUMPDEST STOP JUMPDEST PUSH1 0x0 PUSH1 0x40 MLOAD DUP1 PUSH1 0x80 ADD PUSH1 0x40 MSTORE DUP1 DUP7 DUP2 MSTORE PUSH1 0x20 ADD DUP6 DUP2 MSTORE PUSH1 0x20 ADD DUP4 DUP2 MSTORE PUSH1 0x20 ADD DUP5 DUP2 MSTORE POP SWAP1 POP PUSH1 0x0 DUP1 CALLER PUSH20 0xFFFFFFFFFFFFFFFFFFFFFFFFFFFFFFFFFFFFFFFF AND PUSH20 0xFFFFFFFFFFFFFFFFFFFFFFFFFFFFFFFFFFFFFFFF AND DUP2 MSTORE PUSH1 0x20 ADD SWAP1 DUP2 MSTORE PUSH1 0x20 ADD PUSH1 0x0 KECCAK256 DUP2 SWAP1 DUP1 PUSH1 0x1 DUP2 SLOAD ADD DUP1 DUP3 SSTORE DUP1 SWAP2 POP POP PUSH1 0x1 SWAP1 SUB SWAP1 PUSH1 0x0 MSTORE PUSH1 0x20 PUSH1 0x0 KECCAK256 SWAP1 PUSH1 0x4 MUL ADD PUSH1 0x0 SWAP1 SWAP2 SWAP1 SWAP2 SWAP1 SWAP2 POP PUSH1 0x0 DUP3 ADD MLOAD DUP2 PUSH1 0x0 ADD SWAP1 DUP2 PUSH2 0xEE SWAP2 SWAP1 PUSH2 0x58C JUMP JUMPDEST POP PUSH1 0x20 DUP3 ADD MLOAD DUP2 PUSH1 0x1 ADD SWAP1 DUP2 PUSH2 0x104 SWAP2 SWAP1 PUSH2 0x58C JUMP JUMPDEST POP PUSH1 0x40 DUP3 ADD MLOAD DUP2 PUSH1 0x2 ADD SWAP1 DUP2 PUSH2 0x11A SWAP2 SWAP1 PUSH2 0x58C JUMP JUMPDEST POP PUSH1 0x60 DUP3 ADD MLOAD DUP2 PUSH1 0x3 ADD SWAP1 DUP2 PUSH2 0x130 SWAP2 SWAP1 PUSH2 0x58C JUMP JUMPDEST POP POP POP POP POP POP POP POP JUMP JUMPDEST PUSH1 0x0 PUSH1 0x40 MLOAD SWAP1 POP SWAP1 JUMP JUMPDEST PUSH1 0x0 DUP1 REVERT JUMPDEST PUSH1 0x0 DUP1 REVERT JUMPDEST PUSH1 0x0 DUP1 REVERT JUMPDEST PUSH1 0x0 DUP1 REVERT JUMPDEST PUSH1 0x0 PUSH1 0x1F NOT PUSH1 0x1F DUP4 ADD AND SWAP1 POP SWAP2 SWAP1 POP JUMP JUMPDEST PUSH32 0x4E487B7100000000000000000000000000000000000000000000000000000000 PUSH1 0x0 MSTORE PUSH1 0x41 PUSH1 0x4 MSTORE PUSH1 0x24 PUSH1 0x0 REVERT JUMPDEST PUSH2 0x1A1 DUP3 PUSH2 0x158 JUMP JUMPDEST DUP2 ADD DUP2 DUP2 LT PUSH8 0xFFFFFFFFFFFFFFFF DUP3 GT OR ISZERO PUSH2 0x1C0 JUMPI PUSH2 0x1BF PUSH2 0x169 JUMP JUMPDEST JUMPDEST DUP1 PUSH1 0x40 MSTORE POP POP POP JUMP JUMPDEST PUSH1 0x0 PUSH2 0x1D3 PUSH2 0x13A JUMP JUMPDEST SWAP1 POP PUSH2 0x1DF DUP3 DUP3 PUSH2 0x198 JUMP JUMPDEST SWAP2 SWAP1 POP JUMP JUMPDEST PUSH1 0x0 PUSH8 0xFFFFFFFFFFFFFFFF DUP3 GT ISZERO PUSH2 0x1FF JUMPI PUSH2 0x1FE PUSH2 0x169 JUMP JUMPDEST JUMPDEST PUSH2 0x208 DUP3 PUSH2 0x158 JUMP JUMPDEST SWAP1 POP PUSH1 0x20 DUP2 ADD SWAP1 POP SWAP2 SWAP1 POP JUMP JUMPDEST DUP3 DUP2 DUP4 CALLDATACOPY PUSH1 0x0 DUP4 DUP4 ADD MSTORE POP POP POP JUMP JUMPDEST PUSH1 0x0 PUSH2 0x237 PUSH2 0x232 DUP5 PUSH2 0x1E4 JUMP JUMPDEST PUSH2 0x1C9 JUMP JUMPDEST SWAP1 POP DUP3 DUP2 MSTORE PUSH1 0x20 DUP2 ADD DUP5 DUP5 DUP5 ADD GT ISZERO PUSH2 0x253 JUMPI PUSH2 0x252 PUSH2 0x153 JUMP JUMPDEST JUMPDEST PUSH2 0x25E DUP5 DUP3 DUP6 PUSH2 0x215 JUMP JUMPDEST POP SWAP4 SWAP3 POP POP POP JUMP JUMPDEST PUSH1 0x0 DUP3 PUSH1 0x1F DUP4 ADD SLT PUSH2 0x27B JUMPI PUSH2 0x27A PUSH2 0x14E JUMP JUMPDEST JUMPDEST DUP2 CALLDATALOAD PUSH2 0x28B DUP5 DUP3 PUSH1 0x20 DUP7 ADD PUSH2 0x224 JUMP JUMPDEST SWAP2 POP POP SWAP3 SWAP2 POP POP JUMP JUMPDEST PUSH1 0x0 DUP1 PUSH1 0x0 DUP1 PUSH1 0x80 DUP6 DUP8 SUB SLT ISZERO PUSH2 0x2AE JUMPI PUSH2 0x2AD PUSH2 0x144 JUMP JUMPDEST JUMPDEST PUSH1 0x0 DUP6 ADD CALLDATALOAD PUSH8 0xFFFFFFFFFFFFFFFF DUP2 GT ISZERO PUSH2 0x2CC JUMPI PUSH2 0x2CB PUSH2 0x149 JUMP JUMPDEST JUMPDEST PUSH2 0x2D8 DUP8 DUP3 DUP9 ADD PUSH2 0x266 JUMP JUMPDEST SWAP5 POP POP PUSH1 0x20 DUP6 ADD CALLDATALOAD PUSH8 0xFFFFFFFFFFFFFFFF DUP2 GT ISZERO PUSH2 0x2F9 JUMPI PUSH2 0x2F8 PUSH2 0x149 JUMP JUMPDEST JUMPDEST PUSH2 0x305 DUP8 DUP3 DUP9 ADD PUSH2 0x266 JUMP JUMPDEST SWAP4 POP POP PUSH1 0x40 DUP6 ADD CALLDATALOAD PUSH8 0xFFFFFFFFFFFFFFFF DUP2 GT ISZERO PUSH2 0x326 JUMPI PUSH2 0x325 PUSH2 0x149 JUMP JUMPDEST JUMPDEST PUSH2 0x332 DUP8 DUP3 DUP9 ADD PUSH2 0x266 JUMP JUMPDEST SWAP3 POP POP PUSH1 0x60 DUP6 ADD CALLDATALOAD PUSH8 0xFFFFFFFFFFFFFFFF DUP2 GT ISZERO PUSH2 0x353 JUMPI PUSH2 0x352 PUSH2 0x149 JUMP JUMPDEST JUMPDEST PUSH2 0x35F DUP8 DUP3 DUP9 ADD PUSH2 0x266 JUMP JUMPDEST SWAP2 POP POP SWAP3 SWAP6 SWAP2 SWAP5 POP SWAP3 POP JUMP JUMPDEST PUSH1 0x0 DUP2 MLOAD SWAP1 POP SWAP2 SWAP1 POP JUMP JUMPDEST PUSH32 0x4E487B7100000000000000000000000000000000000000000000000000000000 PUSH1 0x0 MSTORE PUSH1 0x22 PUSH1 0x4 MSTORE PUSH1 0x24 PUSH1 0x0 REVERT JUMPDEST PUSH1 0x0 PUSH1 0x2 DUP3 DIV SWAP1 POP PUSH1 0x1 DUP3 AND DUP1 PUSH2 0x3BD JUMPI PUSH1 0x7F DUP3 AND SWAP2 POP JUMPDEST PUSH1 0x20 DUP3 LT DUP2 SUB PUSH2 0x3D0 JUMPI PUSH2 0x3CF PUSH2 0x376 JUMP JUMPDEST JUMPDEST POP SWAP2 SWAP1 POP JUMP JUMPDEST PUSH1 0x0 DUP2 SWAP1 POP DUP2 PUSH1 0x0 MSTORE PUSH1 0x20 PUSH1 0x0 KECCAK256 SWAP1 POP SWAP2 SWAP1 POP JUMP JUMPDEST PUSH1 0x0 PUSH1 0x20 PUSH1 0x1F DUP4 ADD DIV SWAP1 POP SWAP2 SWAP1 POP JUMP JUMPDEST PUSH1 0x0 DUP3 DUP3 SHL SWAP1 POP SWAP3 SWAP2 POP POP JUMP JUMPDEST PUSH1 0x0 PUSH1 0x8 DUP4 MUL PUSH2 0x438 PUSH32 0xFFFFFFFFFFFFFFFFFFFFFFFFFFFFFFFFFFFFFFFFFFFFFFFFFFFFFFFFFFFFFFFF DUP3 PUSH2 0x3FB JUMP JUMPDEST PUSH2 0x442 DUP7 DUP4 PUSH2 0x3FB JUMP JUMPDEST SWAP6 POP DUP1 NOT DUP5 AND SWAP4 POP DUP1 DUP7 AND DUP5 OR SWAP3 POP POP POP SWAP4 SWAP3 POP POP POP JUMP JUMPDEST PUSH1 0x0 DUP2 SWAP1 POP SWAP2 SWAP1 POP JUMP JUMPDEST PUSH1 0x0 DUP2 SWAP1 POP SWAP2 SWAP1 POP JUMP JUMPDEST PUSH1 0x0 PUSH2 0x489 PUSH2 0x484 PUSH2 0x47F DUP5 PUSH2 0x45A JUMP JUMPDEST PUSH2 0x464 JUMP JUMPDEST PUSH2 0x45A JUMP JUMPDEST SWAP1 POP SWAP2 SWAP1 POP JUMP JUMPDEST PUSH1 0x0 DUP2 SWAP1 POP SWAP2 SWAP1 POP JUMP JUMPDEST PUSH2 0x4A3 DUP4 PUSH2 0x46E JUMP JUMPDEST PUSH2 0x4B7 PUSH2 0x4AF DUP3 PUSH2 0x490 JUMP JUMPDEST DUP5 DUP5 SLOAD PUSH2 0x408 JUMP JUMPDEST DUP3 SSTORE POP POP POP POP JUMP JUMPDEST PUSH1 0x0 SWAP1 JUMP JUMPDEST PUSH2 0x4CC PUSH2 0x4BF JUMP JUMPDEST PUSH2 0x4D7 DUP2 DUP5 DUP5 PUSH2 0x49A JUMP JUMPDEST POP POP POP JUMP JUMPDEST JUMPDEST DUP2 DUP2 LT ISZERO PUSH2 0x4FB JUMPI PUSH2 0x4F0 PUSH1 0x0 DUP3 PUSH2 0x4C4 JUMP JUMPDEST PUSH1 0x1 DUP2 ADD SWAP1 POP PUSH2 0x4DD JUMP JUMPDEST POP POP JUMP JUMPDEST PUSH1 0x1F DUP3 GT ISZERO PUSH2 0x540 JUMPI PUSH2 0x511 DUP2 PUSH2 0x3D6 JUMP JUMPDEST PUSH2 0x51A DUP5 PUSH2 0x3EB JUMP JUMPDEST DUP2 ADD PUSH1 0x20 DUP6 LT ISZERO PUSH2 0x529 JUMPI DUP2 SWAP1 POP JUMPDEST PUSH2 0x53D PUSH2 0x535 DUP6 PUSH2 0x3EB JUMP JUMPDEST DUP4 ADD DUP3 PUSH2 0x4DC JUMP JUMPDEST POP POP JUMPDEST POP POP POP JUMP JUMPDEST PUSH1 0x0 DUP3 DUP3 SHR SWAP1 POP SWAP3 SWAP2 POP POP JUMP JUMPDEST PUSH1 0x0 PUSH2 0x563 PUSH1 0x0 NOT DUP5 PUSH1 0x8 MUL PUSH2 0x545 JUMP JUMPDEST NOT DUP1 DUP4 AND SWAP2 POP POP SWAP3 SWAP2 POP POP JUMP JUMPDEST PUSH1 0x0 PUSH2 0x57C DUP4 DUP4 PUSH2 0x552 JUMP JUMPDEST SWAP2 POP DUP3 PUSH1 0x2 MUL DUP3 OR SWAP1 POP SWAP3 SWAP2 POP POP JUMP JUMPDEST PUSH2 0x595 DUP3 PUSH2 0x36B JUMP JUMPDEST PUSH8 0xFFFFFFFFFFFFFFFF DUP2 GT ISZERO PUSH2 0x5AE JUMPI PUSH2 0x5AD PUSH2 0x169 JUMP JUMPDEST JUMPDEST PUSH2 0x5B8 DUP3 SLOAD PUSH2 0x3A5 JUMP JUMPDEST PUSH2 0x5C3 DUP3 DUP3 DUP6 PUSH2 0x4FF JUMP JUMPDEST PUSH1 0x0 PUSH1 0x20 SWAP1 POP PUSH1 0x1F DUP4 GT PUSH1 0x1 DUP2 EQ PUSH2 0x5F6 JUMPI PUSH1 0x0 DUP5 ISZERO PUSH2 0x5E4 JUMPI DUP3 DUP8 ADD MLOAD SWAP1 POP JUMPDEST PUSH2 0x5EE DUP6 DUP3 PUSH2 0x570 JUMP JUMPDEST DUP7 SSTORE POP PUSH2 0x656 JUMP JUMPDEST PUSH1 0x1F NOT DUP5 AND PUSH2 0x604 DUP7 PUSH2 0x3D6 JUMP JUMPDEST PUSH1 0x0 JUMPDEST DUP3 DUP2 LT ISZERO PUSH2 0x62C JUMPI DUP5 DUP10 ADD MLOAD DUP3 SSTORE PUSH1 0x1 DUP3 ADD SWAP2 POP PUSH1 0x20 DUP6 ADD SWAP5 POP PUSH1 0x20 DUP2 ADD SWAP1 POP PUSH2 0x607 JUMP JUMPDEST DUP7 DUP4 LT ISZERO PUSH2 0x649 JUMPI DUP5 DUP10 ADD MLOAD PUSH2 0x645 PUSH1 0x1F DUP10 AND DUP3 PUSH2 0x552 JUMP JUMPDEST DUP4 SSTORE POP JUMPDEST PUSH1 0x1 PUSH1 0x2 DUP9 MUL ADD DUP9 SSTORE POP POP POP JUMPDEST POP POP POP POP POP POP JUMP INVALID LOG2 PUSH5 0x6970667358 0x22 SLT KECCAK256 SIGNEXTEND DUP10 0xF PUSH19 0x725489BDA3BD6952A6AA5E50E59BF9E46703CD CALLDATASIZE 0x22 0xD0 JUMPI SWAP8 SWAP14 0x2D GT 0x29 PUSH5 0x736F6C6343 STOP ADDMOD SLT STOP CALLER "
				},
				"gasEstimates": {
					"creation": {
						"codeDepositCost": "336800",
						"executionCost": "374",
						"totalCost": "337174"
					},
					"external": {
						"addFile(string,string,string,string)": "infinite"
					}
				},
				"methodIdentifiers": {
					"addFile(string,string,string,string)": "5f067db0"
				}
			},
			"storageLayout": {
				"storage": [
					{
						"astId": 16,
						"contract": "IpfsBluePrint.sol:IpfsBluePrint",
						"label": "filesList",
						"offset": 0,
						"slot": "0",
						"type": "t_mapping(t_address,t_array(t_struct(FileDetails)10_storage)dyn_storage)"
					}
				],
				"types": {
					"t_address": {
						"encoding": "inplace",
						"label": "address",
						"numberOfBytes": "20"
					},
					"t_array(t_struct(FileDetails)10_storage)dyn_storage": {
						"base": "t_struct(FileDetails)10_storage",
						"encoding": "dynamic_array",
						"label": "struct IpfsBluePrint.FileDetails[]",
						"numberOfBytes": "32"
					},
					"t_mapping(t_address,t_array(t_struct(FileDetails)10_storage)dyn_storage)": {
						"encoding": "mapping",
						"key": "t_address",
						"label": "mapping(address => struct IpfsBluePrint.FileDetails[])",
						"numberOfBytes": "32",
						"value": "t_array(t_struct(FileDetails)10_storage)dyn_storage"
					},
					"t_string_storage": {
						"encoding": "bytes",
						"label": "string",
						"numberOfBytes": "32"
					},
					"t_struct(FileDetails)10_storage": {
						"encoding": "inplace",
						"label": "struct IpfsBluePrint.FileDetails",
						"members": [
							{
								"astId": 3,
								"contract": "IpfsBluePrint.sol:IpfsBluePrint",
								"label": "fileHash",
								"offset": 0,
								"slot": "0",
								"type": "t_string_storage"
							},
							{
								"astId": 5,
								"contract": "IpfsBluePrint.sol:IpfsBluePrint",
								"label": "fileName",
								"offset": 0,
								"slot": "1",
								"type": "t_string_storage"
							},
							{
								"astId": 7,
								"contract": "IpfsBluePrint.sol:IpfsBluePrint",
								"label": "transactionDate",
								"offset": 0,
								"slot": "2",
								"type": "t_string_storage"
							},
							{
								"astId": 9,
								"contract": "IpfsBluePrint.sol:IpfsBluePrint",
								"label": "fileExtension",
								"offset": 0,
								"slot": "3",
								"type": "t_string_storage"
							}
						],
						"numberOfBytes": "128"
					}
				}
			},
			"userdoc": {
				"kind": "user",
				"methods": {},
				"version": 1
			}
		}
	}
}